:1000000010C017C016C015C014C013C012C011C054
:1000100010C00FC00EC00DC00CC00BC00AC009C07C
:1000200008C011241FBECFE5D2E0DEBFCDBF02D095
:1000300039C0E6CF87E08ABB61E028EC30E052E0CF
:1000400044E06BBB88E893E1F9013197F1F7019740
:10005000D9F71BBA88E893E1F9013197F1F70197D5
:10006000D9F75BBB88E893E1F9013197F1F7019784
:10007000D9F71BBA88E893E1F9013197F1F70197B5
:10008000D9F74BBB88E893E1F9013197F1F7019774
:10009000D9F71BBA88E893E1F9013197F1F7019795
:0800A000D9F7CFCFF894FFCF90
:00000001FF
