:1000000010C01FC01EC01DC01CC01BC01AC019C01C
:1000100018C017C016C015C014C03BC012C011C014
:1000200010C011241FBECFE5D2E0DEBFCDBF20E05F
:10003000A0E6B0E001C01D92A836B207E1F73DD0BE
:100040007CC0DECFDF9BDF9A8130910581F41616EC
:10005000170624F4DB9A7BBD6ABD08957723C4F4A8
:10006000DB987195619571097BBD6ABD0895029712
:1000700079F41616170624F4DC9A79BD68BD089544
:10008000772334F4DC9871956195710979BD68BD69
:1000900008951F920F920FB60F9211248F939F9382
:1000A00085B190E090936500809364009F918F915B
:1000B0000F900FBE0F901F9018958AB3896F8ABB5F
:1000C000D89A8FB581608FBD8EB582608EBD12BC0F
:1000D0008FB5806A8FBD0098379A339A81E087B9CF
:1000E000329A80E183B9359A7894369A10926100F9
:1000F0001092600060E070E071956195710981E097
:1001000090E0A0DF6091600070916100665F7F4FBA
:100110007093610060936000643671056CF36091C8
:1001200064007091650082E090E08CDF8FE39CE9D1
:0E0130000197F1F700C00000D9CFF894FFCF7F
:00000001FF
