:1000000010C01FC01EC01DC01CC01BC01AC019C01C
:1000100018C017C016C015C014C045C012C011C00A
:1000200010C011241FBECFE5D2E0DEBFCDBF20E05F
:10003000A0E6B0E001C01D92A336B207E1F790D070
:10004000EDC2DECFDF9BDF9A81309105A9F4161651
:10005000170624F4DB9A7BBD6ABD089577233CF430
:10006000DB987195619571097BBD6ABD0895672B19
:10007000C9F41BBC1ABC08950297A1F41616170602
:1000800024F4DC9A79BD68BD089577233CF4DC98AC
:1000900071956195710979BD68BD0895672B11F45B
:1000A00019BC18BC08951F920F920FB60F9211241D
:1000B0008F939F9384B195B1909362008093610078
:1000C0009F918F910F900FBE0F901F901895CF9218
:1000D000DF92EF92FF92CF93DF93809160008111C6
:1000E0001CC0C5E0D0E0C12CD12C7601609161002C
:1000F00070916200CB0181D2BC0180E090E074D1AC
:100100009B01AC01C701B6016ED06B017C01219748
:1001100069F781E08093600010C060916100709188
:100120006200CB016AD2BC0180E090E05DD120E0AA
:1001300030E0A90158D06B017C0180916100909161
:10014000620020E030E040E251E4C701B601B3D0E4
:1001500001D2DF91CF91FF90EF90DF90CF90089583
:100160008AB3896F8ABB8FB581608FBD8EB582607F
:100170008EBD12BC8FB5806A8FBD0098379A339AB6
:1001800081E087B986B1876086B9359A7894369AC6
:10019000D89A64E170E082E090E054DF98DF6B0170
:1001A0007C0120E030E0A90182D0811106C060E02E
:1001B00070E081E090E046DF0BC020E030E040E2FC
:1001C00050E4C701B60177D0DED081E090E03ADF9D
:1001D0002FEF81EE94E0215080409040E1F700C085
:1001E0000000DCCF5058BB27AA270ED075C166D1BE
:1001F00030F06BD120F031F49F3F11F41EF45BC15D
:100200000EF4E095E7FB51C1E92F77D180F3BA17DF
:10021000620773078407950718F071F49EF58FC184
:100220000EF4E0950B2EBA2FA02D0B01B901900111
:100230000C01CA01A0011124FF27591B99F0593F55
:1002400050F4503E68F11A16F040A22F232F342F9D
:100250004427585FF3CF469537952795A795F040EB
:100260005395C9F77EF41F16BA0B620B730B840B00
:10027000BAF09150A1F0FF0FBB1F661F771F881FB8
:10028000C2F70EC0BA0F621F731F841F48F4879510
:1002900077956795B795F7959E3F08F0B3CF9395FF
:1002A000880F08F09927EE0F979587950895D9D074
:1002B00008F481E008950CD00FC107D140F0FED0C2
:1002C00030F021F45F3F19F0F0C0511139C1F3C093
:1002D00014D198F39923C9F35523B1F3951B550B0A
:1002E000BB27AA2762177307840738F09F5F5F4F09
:1002F000220F331F441FAA1FA9F333D00E2E3AF04A
:10030000E0E830D091505040E695001CCAF729D063
:10031000FE2F27D0660F771F881FBB1F26173707B2
:100320004807AB07B0E809F0BB0B802DBF01FF27E2
:1003300093585F4F2AF09E3F510568F0B6C000C148
:100340005F3FECF3983EDCF3869577956795B7951C
:10035000F7959F5FC9F7880F911D9695879597F937
:100360000895E1E0660F771F881FBB1F62177307B0
:100370008407BA0720F0621B730B840BBA0BEE1FC5
:1003800088F7E095089504D06894B111D9C0089514
:10039000BCD088F09F5790F0B92F9927B751A0F0A3
:1003A000D1F0660F771F881F991F1AF0BA95C9F709
:1003B00012C0B13081F0C3D0B1E00895C0C0672F42
:1003C000782F8827B85F39F0B93FCCF386957795B9
:1003D0006795B395D9F73EF49095809570956195A2
:1003E0007F4F8F4F9F4F0895E89409C097FB3EF4CD
:1003F00090958095709561957F4F8F4F9F4F992372
:10040000A9F0F92F96E9BB279395F69587957795EF
:100410006795B795F111F8CFFAF4BB0F11F460FFAF
:100420001BC06F5F7F4F8F4F9F4F16C0882311F007
:1004300096E911C0772321F09EE8872F762F05C01B
:10044000662371F096E8862F70E060E02AF09A95B6
:10045000660F771F881FDAF7880F9695879597F9AB
:100460000895990F0008550FAA0BE0E8FEEF161645
:100470001706E807F907C0F012161306E407F50798
:1004800098F0621B730B840B950B39F40A2661F00C
:10049000232B242B252B21F408950A2609F4A140AF
:1004A000A6958FEF811D811D089597F99F6780E8BC
:1004B00070E060E008959FEF80EC089500240A94B6
:1004C0001616170618060906089500240A9412162F
:1004D0001306140605060895092E0394000C11F462
:1004E000882352F0BB0F40F4BF2B11F460FF04C00F
:1004F0006F5F7F4F8F4F9F4F089557FD9058440F68
:10050000551F59F05F3F71F04795880F97FB991F72
:1005100061F09F3F79F0879508951216130614062F
:10052000551FF2CF4695F1DF08C0161617061806BC
:10053000991FF1CF86957105610508940895E89497
:10054000BB2766277727CB0197F9089511F40EF49E
:10055000B2CF3EC0DADFD0F39923D9F3CEF39F5761
:10056000550B87FF43D00024A0E640EA9001805855
:100570005695979528F4805C660F771F881F20F0AA
:1005800026173707480730F4621B730B840B2029AA
:1005900031294A2BA69517940794202531254A27FF
:1005A00058F7660F771F881F20F026173707480770
:1005B00030F4620B730B840B200D311D411DA0958F
:1005C00081F7B901842F9158880F969587950895E2
:1005D0009F3F31F0915020F4879577956795B795B7
:1005E000880F911D9695879597F9089591505040E1
:1005F000660F771F881FD2F708950024552704C07F
:10060000080E591F880F991F009729F07695679556
:10061000B8F37105B9F7802D952F0895F894FFCFA1
:00000001FF
