:1000000010C01FC01EC01DC01CC01BC01AC019C01C
:1000100018C017C016C015C014C013C012C011C03C
:1000200010C011241FBECFE5D2E0DEBFCDBF20E05F
:10003000A0E6B0E001C01D92A436B207E1F702D0FD
:1000400038C0DECF0098379A85E087B986B18660E0
:1000500086B978948AB387608ABB369A3699FECF80
:1000600084B195B1909363008093620084E08BBB70
:1000700024E031E0369A3699FECF84B195B1909361
:100080006300809362008091620090916300843BE2
:10009000910560F4DA983BBB4FEF89E698E1415057
:1000A00080409040E1F700C00000E4CFD8982BBB1F
:0600B000E1CFF894FFCF40
:00000001FF
