:1000000010C02AC029C0C9C027C026C025C024C02E
:1000100023C022C021C09CC01FC01EC01DC01CC068
:100020001BC011241FBECFE5D2E0DEBFCDBF10E064
:10003000A0E6B0E0E4E6F6E002C005900D92A2363C
:10004000B107D9F720E0A2E6B0E001C01D92A736C3
:10005000B207E1F7DFD004C3D3CFDF9BDF9A813053
:100060009105A9F41616170624F4DB9A7BBD6ABD28
:10007000089577233CF4DB987195619571097BBDF8
:100080006ABD0895672BC9F41BBC1ABC089502977A
:10009000A1F41616170624F4DC9A79BD68BD0895FC
:1000A00077233CF4DC9871956195710979BD68BD41
:1000B0000895672B11F419BC18BC089519BC18BC1D
:1000C0001BBC1ABC0895F8948BB780628BBF80B5B7
:1000D000846080BD78941092660010926200109245
:1000E00063001092640010926500C0988FE39CE951
:1000F0000197F1F700C00000C09A8FEB9DE50197D2
:10010000F1F700C00000C0988FE39CE90197F1F778
:1001100000C00000809166008823E1F38BB78F7DDB
:100120008BBF80B58B7F80BD609162007091630052
:10013000809164009091650072D120E034E244EF38
:100140005AE405D120E03AEE44E856E4FAD10895A5
:100150001F920F920FB60F9211248F939F93AF931C
:10016000BF938091620090916300A0916400B09170
:1001700065009F5FAF4FBF4F809362009093630015
:10018000A0936400B0936500BF91AF919F918F9150
:100190000F900FBE0F901F9018951F920F920FB6E1
:1001A0000F9211242F938F939F93AF93BF93B29B82
:1001B00007C083B7816083BF89B7816089BF1CC0D6
:1001C00083B78E7F83BF22B78091620090916300D6
:1001D000A0916400B0916500820F911DA11DB11D19
:1001E0008093620090936300A0936400B0936500D5
:1001F00012BE81E080936600BF91AF919F918F9175
:100200002F910F900FBE0F901F9018958BB3887F82
:100210008BBB0895B89A8AB38FEF8ABB8FB5816084
:100220008FBD8EB582608EBD12BC8FB5806A8FBDCA
:1002300081E08093600060E570E081E090E00DDF98
:1002400060E570E082E090E008DFD89AC12CD12C04
:10025000E12CF12CBB24B39436DF062F172FD82FB7
:10026000C92F20E030E048EC53E467D1181624F0A1
:10027000C02ED12EED2EFC2E20E030E040E251E4E5
:100280006C2D7D2D8E2D9F2D58D18823DCF08091F3
:10029000600081110DC0D89A60E570E081E090E0C7
:1002A000DCDE60E570E082E090E0D7DEB0926000D6
:1002B0002FEF80E792E0215080409040E1F700C0AE
:1002C00000003BC0A3DFDA9AF9DE2FEF89E698E160
:1002D000215080409040E1F700C0000097DFD99A9C
:1002E00060EB7FEF81E090E0B8DE60EB7FEF82E0D3
:1002F00090E0B3DE2FEF83ED90E3215080409040FB
:10030000E1F700C0000082DF8BB386608BBB60E04A
:1003100070E081E090E0A1DE60E570E082E090E0D6
:100320009CDE2FEF89E698E1215080409040E1F774
:1003300000C000006BDF109260002FEF80E792E0BA
:10034000215080409040E1F700C0000085CF0CD0E4
:10035000BAC0B2D040F0A9D030F021F45F3F19F01C
:100360009BC05111E4C09EC0BFD098F39923C9F33C
:100370005523B1F3951B550BBB27AA2762177307AB
:10038000840738F09F5F5F4F220F331F441FAA1F5F
:10039000A9F333D00E2E3AF0E0E830D0915050401F
:1003A000E695001CCAF729D0FE2F27D0660F771FCD
:1003B000881FBB1F261737074807AB07B0E809F0AF
:1003C000BB0B802DBF01FF2793585F4F2AF09E3F44
:1003D000510568F061C0ABC05F3FECF3983EDCF3C1
:1003E000869577956795B795F7959F5FC9F7880FBD
:1003F000911D9695879597F90895E1E0660F771F0F
:10040000881FBB1F621773078407BA0720F0621B9F
:10041000730B840BBA0BEE1F88F7E0950895E894F0
:1004200009C097FB3EF490958095709561957F4F3C
:100430008F4F9F4F9923A9F0F92F96E9BB279395EA
:10044000F695879577956795B795F111F8CFFAF4FA
:10045000BB0F11F460FF1BC06F5F7F4F8F4F9F4F2B
:1004600016C0882311F096E911C0772321F09EE889
:10047000872F762F05C0662371F096E8862F70E0EF
:1004800060E02AF09A95660F771F881FDAF7880FC9
:100490009695879597F9089597F99F6780E870E09A
:1004A00060E008959FEF80EC089500240A941616EA
:1004B000170618060906089500240A941216130652
:1004C000140605060895092E0394000C11F48823E0
:1004D00052F0BB0F40F4BF2B11F460FF04C06F5FFC
:1004E0007F4F8F4F9F4F089557FD9058440F551FD2
:1004F00059F05F3F71F04795880F97FB991F61F0A6
:100500009F3F79F087950895121613061406551F1C
:10051000F2CF4695F1DF08C0161617061806991F88
:10052000F1CF86957105610508940895E894BB277D
:1005300066277727CB0197F908956ED008F48FEFDF
:1005400008950AD0C0CFB1DF28F0B6DF18F09523A8
:1005500009F0A2CFA7CFEBCFC7DFA8F39923D9F338
:100560005523C9F3950F50E0551FAA27EE27FF2703
:10057000BB2700240894679520F4E20FF31FB41FF3
:100580000A1E220F331F441FAA1F6695A9F77795ED
:1005900030F4F30FB41F0A1E121E08F46395330FD4
:1005A000441FAA1F221F769599F7879520F4B40F50
:1005B0000A1E121E631F440FAA1F221F331F869597
:1005C000A9F7862F712D602D11249F5750408AF076
:1005D000E1F088234AF0EE0FFF1FBB1F661F771F55
:1005E000881F91505040A9F79E3F510570F054CF9D
:1005F0009ECF5F3FECF3983EDCF386957795679549
:10060000B795F795E7959F5FC1F7FE2B880F911D72
:100610009695879597F90895990F0008550FAA0B9D
:10062000E0E8FEEF16161706E807F907C0F0121605
:100630001306E407F50798F0621B730B840B950B08
:1006400039F40A2661F0232B242B252B21F408955D
:100650000A2609F4A140A6958FEF811D811D0895FA
:04066000F894FFCF3C
:02066400010093
:00000001FF
