:1000000010C02AC029C0C1C027C026C025C024C036
:1000100023C022C021C094C01FC01EC01DC01CC070
:100020001BC011241FBECFE5D2E0DEBFCDBF10E064
:10003000A0E6B0E0E0E6F6E002C005900D92A23640
:10004000B107D9F720E0A2E6B0E001C01D92A736C3
:10005000B207E1F7D3D002C3D3CF8130910591F439
:10006000DF9BDF9A1616170624F4DB9A7BBD6ABD68
:1000700008957723D4F4DB987195619571097BBD60
:100080006ABD0895029789F4DF9BDF9A161617065A
:1000900024F4DC9A79BD68BD0895772334F4DC98A4
:1000A00071956195710979BD68BD089519BC18BC39
:1000B0001BBC1ABC0895F8948BB780628BBF80B5C7
:1000C000846080BD78941092660010926200109255
:1000D00063001092640010926500C0988FE39CE961
:1000E0000197F1F700C00000C09A8FEB9DE50197E2
:1000F000F1F700C00000C0988FE39CE90197F1F789
:1001000000C00000809166008823E1F38BB78F7DEB
:100110008BBF80B58B7F80BD609162007091630062
:10012000809164009091650078D120E034E244EF42
:100130005AE40BD120E03AEE44E856E400D20895A8
:100140001F920F920FB60F9211248F939F93AF932C
:10015000BF938091620090916300A0916400B09180
:1001600065009F5FAF4FBF4F809362009093630025
:10017000A0936400B0936500BF91AF919F918F9160
:100180000F900FBE0F901F9018951F920F920FB6F1
:100190000F9211242F938F939F93AF93BF93B29B92
:1001A00007C083B7816083BF89B7816089BF1CC0E6
:1001B00083B78E7F83BF22B78091620090916300E6
:1001C000A0916400B0916500820F911DA11DB11D29
:1001D0008093620090936300A0936400B0936500E5
:1001E00012BE81E080936600BF91AF919F918F9185
:1001F0002F910F900FBE0F901F901895B89A8AB349
:100200008FEF8ABB8FB581608FBD8EB582608EBD4A
:1002100012BC8FB5806A8FBDC12CD12CE12CF12C82
:10022000BB24B39448DF062F172FD82FC92F20E007
:1002300030E048EC53E47FD1181624F0C02ED12EC4
:10024000ED2EFC2E20E030E040E251E46C2D7D2DBF
:100250008E2D9F2D70D18823DCF08091600081115C
:100260000DC0DA9A66E970E081E090E0F6DE66E9BA
:1002700070E082E090E0F1DEB09260002FEF80E766
:1002800092E0215080409040E1F700C0000056C04D
:10029000DA98D89A0BDF2FEF89E698E12150804059
:1002A0009040E1F700C00000D898D99A6AE67FEF45
:1002B00081E090E0D2DE6AE67FEF82E090E0CDDE82
:1002C0002FEF83ED90E3215080409040E1F700C094
:1002D0000000D9988BB383608BBB6AE67FEF81E027
:1002E00090E0BBDE66E970E082E090E0B6DE2FEFE2
:1002F00089E698E1215080409040E1F700C000007D
:100300008BB38C7F8BBB8BB386608BBB66E970E055
:1003100081E090E0A2DE6AE67FEF82E090E09DDE81
:100320002FEF89E698E1215080409040E1F700C02E
:1003300000008BB3897F8BBB1092600087EC90E04C
:100340000197F1F700C000006DCF0CD0BAC0B2D059
:1003500040F0A9D030F021F45F3F19F09BC051115B
:10036000E4C09EC0BFD098F39923C9F35523B1F3DD
:10037000951B550BBB27AA2762177307840738F014
:100380009F5F5F4F220F331F441FAA1FA9F333D073
:100390000E2E3AF0E0E830D091505040E695001C27
:1003A000CAF729D0FE2F27D0660F771F881FBB1FE3
:1003B000261737074807AB07B0E809F0BB0B802DBD
:1003C000BF01FF2793585F4F2AF09E3F510568F009
:1003D00061C0ABC05F3FECF3983EDCF38695779548
:1003E0006795B795F7959F5FC9F7880F911D96950B
:1003F000879597F90895E1E0660F771F881FBB1F67
:10040000621773078407BA0720F0621B730B840B13
:10041000BA0BEE1F88F7E0950895E89409C097FBA2
:100420003EF490958095709561957F4F8F4F9F4FCB
:100430009923A9F0F92F96E9BB279395F69587950F
:1004400077956795B795F111F8CFFAF4BB0F11F4D2
:1004500060FF1BC06F5F7F4F8F4F9F4F16C0882379
:1004600011F096E911C0772321F09EE8872F762FAF
:1004700005C0662371F096E8862F70E060E02AF0F0
:100480009A95660F771F881FDAF7880F96958795DC
:1004900097F9089597F99F6780E870E060E0089504
:1004A0009FEF80EC089500240A941616170618068C
:1004B0000906089500240A94121613061406050668
:1004C0000895092E0394000C11F4882352F0BB0FF9
:1004D00040F4BF2B11F460FF04C06F5F7F4F8F4F5C
:1004E0009F4F089557FD9058440F551F59F05F3F97
:1004F00071F04795880F97FB991F61F09F3F79F046
:1005000087950895121613061406551FF2CF4695C7
:10051000F1DF08C0161617061806991FF1CF869549
:100520007105610508940895E894BB27662777272D
:10053000CB0197F908956ED008F48FEF08950AD093
:10054000C0CFB1DF28F0B6DF18F0952309F0A2CFB5
:10055000A7CFEBCFC7DFA8F39923D9F35523C9F36E
:10056000950F50E0551FAA27EE27FF27BB27002431
:100570000894679520F4E20FF31FB41F0A1E220FA0
:10058000331F441FAA1F6695A9F7779530F4F30F20
:10059000B41F0A1E121E08F46395330F441FAA1FCE
:1005A000221F769599F7879520F4B40F0A1E121E24
:1005B000631F440FAA1F221F331F8695A9F7862F9A
:1005C000712D602D11249F5750408AF0E1F088234F
:1005D0004AF0EE0FFF1FBB1F661F771F881F915049
:1005E0005040A9F79E3F510570F054CF9ECF5F3F1A
:1005F000ECF3983EDCF3869577956795B795F7957C
:10060000E7959F5FC1F7FE2B880F911D9695879503
:1006100097F90895990F0008550FAA0BE0E8FEEF2F
:1006200016161706E807F907C0F012161306E407B6
:10063000F50798F0621B730B840B950B39F40A26AF
:1006400061F0232B242B252B21F408950A2609F48D
:10065000A140A6958FEF811D811D0895F894FFCFCD
:02066000010097
:00000001FF
